:100000000C9435000C945D000C945D000C945D0024
:100010000C945D000C945D000C945D000C945D00EC
:100020000C945D000C945D000C945D000C945D00DC
:100030000C945D000C945D000C945D000C945D00CC
:100040000C94C4010C945D000C9434020C940E02C8
:100050000C945D000C945D000C945D000C945D00AC
:100060000C945D000C945D00BA0211241FBECFEF0A
:10007000D8E0DEBFCDBF21E0A6E3B1E001C01D9214
:10008000AC3DB207E1F711E0A0E0B1E0EEEEF5E043
:1000900002C005900D92A633B107D9F710E0C5E371
:1000A000D0E004C02197FE010E94EF02C433D107C3
:1000B000C9F70E9466020C94E7020C940000789441
:1000C00084B5826084BD84B5816084BD85B582605D
:1000D00085BD85B5816085BDEEE6F0E080818160FB
:1000E0008083E1E8F0E010828081826080838081FB
:1000F00081608083E0E8F0E0808181608083E1EBD3
:10010000F0E0808184608083E0EBF0E080818160BA
:100110008083EAE7F0E08081846080838081826070
:100120008083808181608083808180688083109259
:10013000C1000895FC01538D448D252F30E0842F9C
:1001400090E0821B930B541710F0CF9608950197FF
:100150000895FC01918D828D981761F0828DDF01E9
:10016000A80FB11D5D968C91928D9F5F9F73928FAA
:1001700090E008958FEF9FEF0895FC01918D828D9F
:10018000981731F0828DE80FF11D858D90E008956C
:100190008FEF9FEF0895FC01918D228D892F90E0C4
:1001A000805C9F4F821B91098F7399270895FC01F2
:1001B000848DDF01A80FB11DA35ABF4F2C91848DF0
:1001C00090E001968F739927848FA689B7892C9325
:1001D000A089B1898C91837080648C93938D848D78
:1001E000981306C00288F389E02D80818F7D80837B
:1001F0000895EF92FF920F931F93CF93DF93EC013B
:1002000081E0888F9B8D8C8D981305C0E889F989D2
:10021000808185FD26C0F62E0B8D10E00F5F1F4FED
:100220000F731127E02E8C8DE8120CC00FB607FC5F
:10023000FACFE889F989808185FFF5CFCE010E9448
:10024000D700F1CF8B8DFE01E80FF11DE35AFF4F70
:10025000F0829FB7F8940B8FEA89FB8980818062D6
:100260000AC09FB7F894EE89FF896083E889F9890D
:1002700080818370806480839FBF81E090E0DF9104
:10028000CF911F910F91FF90EF900895CF93DF933F
:10029000EC01888D8823C9F0EA89FB89808185FD7E
:1002A00005C0A889B9898C9186FD0FC00FB607FCDF
:1002B000F5CF808185FFF2CFA889B9898C9185FF20
:1002C000EDCFCE010E94D700E7CFDF91CF91089507
:1002D0008FE391E00E94CB0021E0892B09F420E01C
:1002E000822F089580E090E0892B29F00E94680118
:1002F00081110C9400000895CF92DF92EF92FF924B
:100300000F931F93CF93DF936C017A018B01C0E0B1
:10031000D0E0CE15DF0581F0D8016D918D01D601B9
:10032000ED91FC910190F081E02DC6010995892B9A
:1003300011F02196EECF7E01C701DF91CF911F9181
:100340000F91FF90EF90DF90CF900895089580E097
:1003500090E00895009799F0FC0101900020E9F7E2
:100360003197AF01481B590BE0913F01F0914001DB
:100370000280F381E02DBC018FE391E0099480E0DD
:1003800090E008950E94EA021F920F920FB60F921A
:1003900011242F933F938F939F93AF93BF9380919B
:1003A0003B0190913C01A0913D01B0913E01309103
:1003B0003A0123E0230F2D3720F40196A11DB11D32
:1003C00005C026E8230F0296A11DB11D20933A0116
:1003D00080933B0190933C01A0933D01B0933E017B
:1003E0008091360190913701A0913801B091390187
:1003F0000196A11DB11D8093360190933701A09302
:100400003801B0933901BF91AF919F918F913F9186
:100410002F910F900FBE0F901F9018951F920F9263
:100420000FB60F9211242F933F934F935F936F93C7
:100430007F938F939F93AF93BF93EF93FF938FE33C
:1004400091E00E94D700FF91EF91BF91AF919F91F2
:100450008F917F916F915F914F913F912F910F906D
:100460000FBE0F901F9018951F920F920FB60F920C
:1004700011242F938F939F93EF93FF93E0914F015C
:10048000F09150018081E0915501F091560182FD7B
:1004900012C09081809158018F5F8F732091590114
:1004A000821751F0E0915801F0E0E15CFE4F958F2A
:1004B0008093580101C08081FF91EF919F918F91AE
:1004C0002F910F900FBE0F901F9018950E945F0004
:1004D000E0914F01F091500182E08083E0914B0167
:1004E000F0914C011082E0914D01F0914E018FECA2
:1004F000808310925701E0915301F091540186E0FE
:100500008083E0915101F09152018081806180836C
:10051000E0915101F0915201808188608083E091E7
:100520005101F0915201808180688083E0915101F6
:10053000F091520180818F7D808382E191E00E9461
:10054000AA01E0913F01F09140010280F381E02D8A
:1005500040E050E060E070E08FE391E0099589E2CF
:1005600091E00E94AA018CE291E00E94AA010E94FF
:100570007201FDCFEFE3F1E01382128288EE93E087
:10058000A0E0B0E084839583A683B78384E091E004
:100590009183808385EC90E09587848784EC90E05C
:1005A0009787868780EC90E0918B808B81EC90E040
:1005B000938B828B82EC90E0958B848B86EC90E021
:1005C000978B868B118E128E138E148E0895F8944D
:1005D0000C94F50281E090E0F8940C94F502EE0F93
:0E05E000FF1F0590F491E02D0994F894FFCFD1
:1005EE0000000000F9007C019A004601CB00A90032
:1005FE00BD00546869732069732074686520757333
:10060E0065726E616D653A20000D0A00476F6F646A
:06061E0062796521000075
:00000001FF
